:020000040800F2
:10000000005000203D4A0008D1460008D3460008B1
:10001000D5460008D7460008D94600080000000071
:10002000000000000000000000000000DB460008A7
:10003000DD46000800000000DF460008E146000839
:10004000854A0008854A0008854A0008854A000854
:10005000854A0008854A0008854A0008854A000844
:10006000854A0008854A0008854A0008ED460008D0
:10007000854A0008854A0008854A0008854A000824
:10008000854A0008854A0008854A0008854A000814
:10009000854A0008854A0008854A0008854A000804
:1000A000854A0008854A0008854A0008854A0008F4
:1000B000854A0008854A0008FD460008854A000870
:1000C000854A0008854A0008854A0008854A0008D4
:1000D000854A0008854A0008854A0008854A0008C4
:1000E000854A0008854A0008854A0008000000008B
:1000F0000000000000000000000000000000000000
:0C01000000000000000000005FF808F1A3
:1001100010B5054C237833B9044B13B10448AFF341
:1001200000800123237010BDC400002000000000E7
:100130001453000808B5034B1BB103490348AFF340
:10014000008008BD00000000C80000201453000813
:1001500081F0004102E000BF83F0004330B54FEA78
:1001600041044FEA430594EA050F08BF90EA020FE5
:100170001FBF54EA000C55EA020C7FEA645C7FEA78
:10018000655C00F0E2804FEA5454D4EB5555B8BF9B
:100190006D420CDD2C4480EA020281EA030382EA0C
:1001A000000083EA010180EA020281EA0303362D9E
:1001B00088BF30BD11F0004F4FEA01314FF4801C71
:1001C0004CEA113102D0404261EB410113F0004F83
:1001D0004FEA03334CEA133302D0524263EB43033A
:1001E00094EA050F00F0A780A4F10104D5F1200ED8
:1001F0000DDB02FA0EFC22FA05F2801841F1000133
:1002000003FA0EF2801843FA05F359410EE0A5F106
:1002100020050EF1200E012A03FA0EFC28BF4CF037
:10022000020C43FA05F3C01851EBE37101F00045ED
:1002300007D54FF0000EDCF1000C7EEB00006EEBFA
:100240000101B1F5801F1BD3B1F5001F0CD3490884
:100250005FEA30004FEA3C0C04F101044FEA4452DB
:1002600012F5800F80F09A80BCF1004F08BF5FEA62
:10027000500C50F1000041EB045141EA050130BD42
:100280005FEA4C0C404141EB010111F4801FA4F1E5
:100290000104E9D191F0000F04BF01460020B1FA3A
:1002A00081F308BF2033A3F10B03B3F120020CDA72
:1002B0000C3208DD02F1140CC2F10C0201FA0CF050
:1002C00021FA02F10CE002F11402D8BFC2F1200CB5
:1002D00001FA02F120FA0CFCDCBF41EA0C0190406B
:1002E000E41AA2BF01EB0451294330BD6FEA0404B4
:1002F0001F3C1CDA0C340EDC04F11404C4F120029F
:1003000020FA04F001FA02F340EA030021FA04F3B0
:1003100045EA030130BDC4F10C04C4F1200220FA07
:1003200002F001FA04F340EA0300294630BD21FA45
:1003300004F0294630BD94F0000F83F4801306BF0B
:1003400081F480110134013D4EE77FEA645C18BFFF
:100350007FEA655C29D094EA050F08BF90EA020F96
:1003600005D054EA000C04BF1946104630BD91EA8E
:10037000030F1EBF0021002030BD5FEA545C05D191
:100380004000494128BF41F0004130BD14F58004D0
:100390003CBF01F5801130BD01F0004545F0FE4144
:1003A00041F470014FF0000030BD7FEA645C1ABF79
:1003B000194610467FEA655C1CBF0B46024650EAB0
:1003C000013406BF52EA033591EA030F41F40021DC
:1003D00030BD00BF90F0000F04BF0021704730B562
:1003E0004FF4806404F132044FF000054FF0000137
:1003F00050E700BF90F0000F04BF0021704730B5F8
:100400004FF4806404F1320410F0004548BF4042CC
:100410004FF000013EE700BF42004FEAE2014FEA21
:1004200031014FEA02701FBF12F07F4393F07F4FFC
:1004300081F06051704732F07F4208BF704793F0FF
:100440007F4F04BF41F40021704730B54FF4607412
:1004500001F0004521F000411CE700BF50EA010215
:1004600008BF704730B54FF000050AE050EA0102BE
:1004700008BF704730B511F0004502D5404261EB2E
:1004800041014FF4806404F132045FEA915C3FF46F
:10049000D8AE4FF003025FEADC0C18BF03325FEA0C
:1004A000DC0C18BF033202EBDC02C2F1200300FABD
:1004B00003FC20FA02F001FA03FE40EA0E0021FAE2
:1004C00002F11444BDE600BF70B54FF0FF0C4CF4D0
:1004D000E06C1CEA11541DBF1CEA135594EA0C0F82
:1004E00095EA0C0F00F0DEF82C4481EA030621EABD
:1004F0004C5123EA4C5350EA013518BF52EA0335F8
:1005000041F4801143F4801338D0A0FB02CE4FF0A9
:100510000005E1FB02E506F00042E0FB03E54FF0D9
:100520000006E1FB03569CF0000F18BF4EF0010ED1
:10053000A4F1FF04B6F5007F64F5407404D25FEACD
:100540004E0E6D4146EB060642EAC62141EA555180
:100550004FEAC52040EA5E504FEACE2EB4F1FD0CC2
:1005600088BFBCF5E06F1ED8BEF1004F08BF5FEA40
:10057000500E50F1000041EB045170BD06F00046F2
:1005800046EA010140EA020081EA0301B4EB5C049F
:10059000C2BFD4EB0C0541EA045170BD41F4801197
:1005A0004FF0000E013C00F3AB8014F1360FDEBFBC
:1005B000002001F0004170BDC4F10004203C35DA98
:1005C0000C341BDC04F11404C4F1200500FA05F31B
:1005D00020FA04F001FA05F240EA020001F00042BC
:1005E00021F0004110EBD37021FA04F642EB060132
:1005F0005EEA430E08BF20EAD37070BDC4F10C045C
:10060000C4F1200500FA04F320FA05F001FA04F21F
:1006100040EA020001F0004110EBD37041F100010B
:100620005EEA430E08BF20EAD37070BDC4F1200516
:1006300000FA05F24EEA020E20FA04F301FA05F27E
:1006400043EA020321FA04F001F0004121FA04F226
:1006500020EA020000EBD3705EEA430E08BF20EAF6
:10066000D37070BD94F0000F0FD101F00046400030
:1006700041EB010111F4801F08BF013CF7D041EAB2
:10068000060195F0000F18BF704703F000465200B6
:1006900043EB030313F4801F08BF013DF7D043EA87
:1006A0000603704794EA0C0F0CEA135518BF95EA3D
:1006B0000C0F0CD050EA410618BF52EA4306D1D1C4
:1006C00081EA030101F000414FF0000070BD50EAE3
:1006D000410606BF1046194652EA430619D094EA6D
:1006E0000C0F02D150EA013613D195EA0C0F05D157
:1006F00052EA03361CBF104619460AD181EA0301AB
:1007000001F0004141F0FE4141F470014FF0000062
:1007100070BD41F0FE4141F4780170BD70B54FF0FD
:10072000FF0C4CF4E06C1CEA11541DBF1CEA13557D
:1007300094EA0C0F95EA0C0F00F0A7F8A4EB05045F
:1007400081EA030E52EA03354FEA013100F0888056
:100750004FEA03334FF0805545EA131343EA12631F
:100760004FEA022245EA111545EA10654FEA0026D4
:100770000EF000419D4208BF964244F1FD0404F58D
:10078000407402D25B084FEA3202B61A65EB0305E9
:100790005B084FEA32024FF480104FF4002CB6EBA6
:1007A000020E75EB030E22BFB61A754640EA0C0026
:1007B0005B084FEA3202B6EB020E75EB030E22BF66
:1007C000B61A754640EA5C005B084FEA3202B6EBA7
:1007D000020E75EB030E22BFB61A754640EA9C0066
:1007E0005B084FEA3202B6EB020E75EB030E22BF36
:1007F000B61A754640EADC0055EA060E18D04FEAF4
:10080000051545EA16754FEA06164FEAC30343EA93
:1008100052734FEAC2025FEA1C1CC0D111F4801F60
:100820000BD141EA00014FF000004FF0004CB6E759
:1008300011F4801F04BF01430020B4F1FD0C88BFF8
:10084000BCF5E06F3FF6AFAEB5EB030C04BFB6EB03
:10085000020C5FEA500C50F1000041EB045170BDF6
:100860000EF0004E4EEA113114EB5C04C2BFD4EB23
:100870000C0541EA045170BD41F480114FF0000EA7
:10088000013C90E645EA060E8DE60CEA135594EA23
:100890000C0F08BF95EA0C0F3FF43BAF94EA0C0F26
:1008A0000AD150EA01347FF434AF95EA0C0F7FF49B
:1008B00025AF104619462CE795EA0C0F06D152EAEF
:1008C00003353FF4FDAE1046194622E750EA4106D3
:1008D00018BF52EA43067FF4C5AE50EA41047FF4E4
:1008E0000DAF52EA43057FF4EBAE12E74FF0FF3C49
:1008F00006E000BF4FF0010C02E000BF4FF0010C1A
:100900004DF804CD4FEA410C7FEA6C5C4FEA430C92
:1009100018BF7FEA6C5C1BD001B050EA410C0CBFE1
:1009200052EA430C91EA030F02BF90EA020F002043
:10093000704710F1000F91EA030F58BF994208BFAA
:1009400090422CBFD8176FEAE37040F00100704767
:100950004FEA410C7FEA6C5C02D150EA013C07D1BE
:100960004FEA430C7FEA6C5CD6D152EA033CD3D009
:100970005DF8040B704700BF8446104662468C4603
:100980001946634600E000BF01B5FFF7B7FF002836
:1009900048BF10F1000F01BD4DF808EDFFF7F4FF5F
:1009A0000CBF012000205DF808FB00BF4DF808EDEA
:1009B000FFF7EAFF34BF012000205DF808FB00BF0D
:1009C0004DF808EDFFF7E0FF94BF012000205DF82F
:1009D00008FB00BF4DF808EDFFF7CEFF94BF0120E4
:1009E00000205DF808FB00BF4DF808EDFFF7C4FFDD
:1009F00034BF012000205DF808FB00BF4FEA410230
:100A000012F5001215D211D56FF47873B3EB625260
:100A100012D94FEAC12343F0004343EA505311F087
:100A2000004F23FA02F018BF404270474FF0000019
:100A3000704750EA013005D111F0004008BF6FF057
:100A4000004070474FF00000704700BF80F000404A
:100A500002E000BF81F0004142001FBF5FEA410396
:100A600092EA030F7FEA226C7FEA236C6AD04FEA96
:100A70001262D2EB1363C1BFD218414048404140DB
:100A8000B8BF5B42192B88BF704710F0004F40F48D
:100A9000000020F07F4018BF404211F0004F41F4A9
:100AA000000121F07F4118BF494292EA030F3FD075
:100AB000A2F1010241FA03FC10EB0C00C3F1200388
:100AC00001FA03F100F0004302D5494260EB400017
:100AD000B0F5000F13D3B0F1807F06D340084FEA82
:100AE000310102F10102FE2A51D2B1F1004F40EB77
:100AF000C25008BF20F0010040EA030070474900DF
:100B000040EB000010F4000FA2F10102EDD1B0FAA9
:100B100080FCACF1080CB2EB0C0200FA0CF0AABF9E
:100B200000EBC25052421843BCBFD040184370473C
:100B300092F0000F81F4000106BF80F40000013242
:100B4000013BB5E74FEA41037FEA226C18BF7FEA19
:100B5000236C21D092EA030F04D092F0000F08BF5B
:100B60000846704790EA010F1CBF0020704712F042
:100B70007F4F04D1400028BF40F00040704712F181
:100B800000723CBF00F50000704700F0004343F0E6
:100B9000FE4040F4000070477FEA226216BF08461C
:100BA0007FEA23630146420206BF5FEA412390EADF
:100BB000010F40F4800070474FF0000304E000BFD5
:100BC00010F0004348BF40425FEA000C08BF704786
:100BD00043F0964301464FF000001CE050EA01024A
:100BE00008BF70474FF000030AE000BF50EA01025F
:100BF00008BF704711F0004302D5404261EB41014C
:100C00005FEA010C02BF84460146002043F0B64370
:100C100008BFA3F18053A3F50003BCFA8CF2083A95
:100C2000A3EBC25310DB01FA02FC634400FA02FC9E
:100C3000C2F12002BCF1004F20FA02F243EB0200A5
:100C400008BF20F00100704702F1200201FA02FC07
:100C5000C2F1200250EA4C0021FA02F243EB0200FA
:100C600008BF20EADC7070474FF0FF0C1CEAD0523E
:100C70001EBF1CEAD15392EA0C0F93EA0C0F6FD0FF
:100C80001A4480EA010C400218BF5FEA41211ED0DD
:100C90004FF0006343EA501043EA5111A0FB0131C9
:100CA0000CF00040B1F5000F3EBF490041EAD3719E
:100CB0005B0040EA010062F17F02FD2A1DD8B3F11A
:100CC000004F40EBC25008BF20F00100704790F089
:100CD000000F0CF0004C08BF49024CEA502040EADB
:100CE00051207F3AC2BFD2F1FF0340EAC2507047A1
:100CF00040F400004FF00003013A5DDC12F1190FDF
:100D0000DCBF00F000407047C2F10002410021FA50
:100D100002F1C2F1200200FA02FC5FEA310040F168
:100D2000000053EA4C0308BF20EADC70704792F0E1
:100D3000000F00F0004C02BF400010F4000F013A19
:100D4000F9D040EA0C0093F0000F01F0004C02BF14
:100D5000490011F4000F013BF9D041EA0C018FE783
:100D60000CEAD15392EA0C0F18BF93EA0C0F0AD089
:100D700030F0004C18BF31F0004CD8D180EA0100AF
:100D800000F00040704790F0000F17BF90F0004F48
:100D9000084691F0000F91F0004F14D092EA0C0F2A
:100DA00001D142020FD193EA0C0F03D14B0218BFBD
:100DB000084608D180EA010000F0004040F0FE4003
:100DC00040F40000704740F0FE4040F4400070479F
:100DD0004FF0FF0C1CEAD0521EBF1CEAD15392EA1E
:100DE0000C0F93EA0C0F69D0A2EB030280EA010C0E
:100DF00049024FEA402037D04FF0805343EA1111A7
:100E000043EA10130CF000408B4238BF5B0042F104
:100E10007D024FF4000C8B4224BF5B1A40EA0C00A9
:100E2000B3EB510F24BFA3EB510340EA5C00B3EBDB
:100E3000910F24BFA3EB910340EA9C00B3EBD10FC9
:100E400024BFA3EBD10340EADC001B0118BF5FEA1B
:100E50001C1CE0D1FD2A3FF650AF8B4240EBC25044
:100E600008BF20F0010070470CF0004C4CEA502005
:100E70007F32C2BFD2F1FF0340EAC250704740F454
:100E800000004FF00003013A37E792F0000F00F046
:100E9000004C02BF400010F4000F013AF9D040EAC4
:100EA0000C0093F0000F01F0004C02BF490011F458
:100EB000000F013BF9D041EA0C0195E70CEAD15350
:100EC00092EA0C0F08D142027FF47DAF93EA0C0F37
:100ED0007FF470AF084676E793EA0C0F04D14B021B
:100EE0003FF44CAF08466EE730F0004C18BF31F0CD
:100EF000004CCAD130F000427FF45CAF31F00043C7
:100F00007FF43CAF5FE700BF4FF0FF3C06E000BF5F
:100F10004FF0010C02E000BF4FF0010C4DF804CD82
:100F20004FEA40024FEA41037FEA226C18BF7FEA92
:100F3000236C11D001B052EA530C18BF90EA010F94
:100F400058BFB2EB030088BFC81738BF6FEAE17023
:100F500018BF40F0010070477FEA226C02D15FEABF
:100F6000402C05D17FEA236CE4D15FEA412CE1D02B
:100F70005DF8040B704700BF844608466146FFE7F2
:100F80000FB5FFF7C9FF002848BF10F1000F0FBDD4
:100F90004DF808EDFFF7F4FF0CBF012000205DF8CD
:100FA00008FB00BF4DF808EDFFF7EAFF34BF012052
:100FB00000205DF808FB00BF4DF808EDFFF7E0FFEB
:100FC00094BF012000205DF808FB00BF4DF808ED3C
:100FD000FFF7D2FF94BF012000205DF808FB00BF9F
:100FE0004DF808EDFFF7C8FF34BF012000205DF881
:100FF00008FB00BF4FEA4002B2F1FE4F0FD34FF0A3
:101000009E03B3EB12620DD94FEA002343F0004375
:1010100010F0004F23FA02F018BF404270474FF023
:101020000000704712F1610F01D1420205D110F0AA
:10103000004008BF6FF0004070474FF0000070475D
:1010400042000ED2B2F1FE4F0BD34FF09E03B3EB32
:10105000126209D44FEA002343F0004323FA02F05E
:1010600070474FF00000704712F1610F01D142024A
:1010700002D14FF0FF3070474FF00000704700BFC3
:1010800010B504460E4B18784FF47A73B3FBF0F3A7
:101090000C4A1068B0FBF3F000F07CFB68B90F2C31
:1010A00001D901200AE0002221464FF0FF3000F074
:1010B00031FB034B5C60002000E0012010BD00BF4D
:1010C000000000202C00002008B5074A136843F0F8
:1010D00010031360032000F00BFB0020FFF7D0FF8C
:1010E00003F006FA002008BD00200240034A116800
:1010F000034B1B780B441360704700BF1C05002096
:1011000000000020014B1868704700BF1C0500203C
:1011100038B50446FFF7F6FF0546B4F1FF3F02D0AD
:10112000044B1B781C44FFF7EDFF401BA042FAD391
:1011300038BD00BF0000002008B5436A9A6A12F06B
:10114000500F03D01B6A1B6B984708BD9A6A42F484
:1011500000729A621A68926802F46022B2F5602FF7
:1011600003D0184602F09CFAEFE7DA68002AF8D1BB
:101170009A6A22F480729A629A6A12F4805FF0D1BD
:101180009A6A42F001029A62EBE7704708B5406A3A
:10119000FFF7FBFF08BD704708B5406A836A43F05C
:1011A00040038362C36A43F00403C362FFF7F3FFA3
:1011B00008BD000030B583B00023019303689A682E
:1011C00012F0010F2ED19A6842F001029A60174B7B
:1011D0001B68174AA2FB03239B0C019302E0019BAF
:1011E000013B0193019B002BF9D10446FFF78AFFD5
:1011F000054623689B6813F0010F11D1FFF782FFAA
:10120000401B0228F5D9A36A43F01003A362E36AE6
:1012100043F00103E362002384F82430012002E05C
:10122000002000E0002003B030BD00BF2C000020F3
:1012300083DE1B4390F82430012B6AD010B504469E
:10124000012380F82430FFF7B5FF024600285BD168
:10125000A36A23F4407323F0010343F48073A36271
:1012600023682D498B4227D0A16A21F48011A16205
:10127000596811F4806F05D0A16A21F4405141F4FE
:101280008051A162A16A11F4805F2BD0E16A21F044
:101290000601E162002184F824106FF00201196058
:1012A0002368996801F46021B1F5602F1DD0996819
:1012B00041F4801199602AE0A1F58061496811F438
:1012C000702FD1D0A16A41F48011A16213494968FD
:1012D00011F4806FD6D0A16A21F4405141F48051BD
:1012E000A162CFE70021E162D4E70B498B4204D031
:1012F000996841F4A001996009E0A1F5806149680D
:1013000011F4702FD3D1F3E7002384F82430104672
:1013100010BD022210467047002801400024014001
:1013200038B503689A6812F0010F01D1002038BD6A
:1013300004469A6822F001029A60FFF7E3FE054630
:1013400023689B6813F0010F0ED0FFF7DBFE401BF4
:101350000228F5D9A36A43F01003A362E36A43F0BD
:101360000103E3620120E2E70020E0E700287FD0EC
:1013700038B50446836A002B33D02046FFF7D0FFF0
:10138000A36A13F010036DD100286BD1A26A22F476
:10139000885222F0020242F00202A2626268E1690F
:1013A0000A43E56842EA4502A168B1F5807F21D091
:1013B00001291CD0616901291FD02568696821F4C1
:1013C00069410B436B6021688D682A4B2B401343A6
:1013D0008B60A368B3F5807F20D0012B1ED0002145
:1013E0001FE0C36280F8243003F0D2F8C5E74FF461
:1013F0008073DFE74FF48073DCE735B9A169013909
:1014000043EA413343F40063D7E7A16A41F0200186
:10141000A162E16A41F00101E162CEE72369013B8B
:1014200019052568EB6A23F470030B43EB6223680C
:101430009968114B0B409A420BD0A36A23F0120318
:1014400043F01003A362E36A43F00103E362012067
:101450000DE00023E362A36A23F0030343F00103DA
:10146000A36204E0A36A43F01003A362012038BD25
:1014700001207047FDF7E1FFFE0E1FFF90F82430BA
:10148000012B15D010B50446012380F82430FFF756
:1014900047FF024638B9A36A23F4885323F00103B7
:1014A00043F00103A362002384F82430104610BDEA
:1014B000022210467047000070B582B000230193ED
:1014C00090F82430012B68D00446012380F82430A2
:1014D000FFF726FF054628B1002384F8243028466C
:1014E00002B070BDA36A23F4885323F0020343F0D3
:1014F0000203A3622A4B1E68022001F001FAB6FB28
:10150000F0F04000019002E0019B013B0193019B40
:10151000002BF9D12046FFF74DFE2268936843F077
:1015200008039360FFF7EEFD064623689A6812F001
:10153000080F0FD0FFF7E6FD801B0A28F5D9A36A34
:1015400023F0120343F01003A362002384F8243035
:101550000125C4E79A6842F004029A60FFF7D2FDC1
:10156000064623689B6813F0040F0FD0FFF7CAFDEF
:10157000801B0A28F5D9A36A23F0120343F0100355
:10158000A362002384F824300125A8E7A36A23F08E
:10159000030343F00103A3629EE702259FE700BF18
:1015A0002C000020F0B58DB090F82440012C67D0BD
:1015B000012480F82440334C0094A46804F460248F
:1015C000B4F5602F0AD0836A43F0200383620023BE
:1015D00080F82430012420460DB0F0BD17460E4699
:1015E0000546FFF7E7FD044600283BD0002C43D119
:1015F000AA6A254B134043F48073AB622B685B6887
:1016000013F4806F05D0AB6A23F4405343F4805346
:10161000AB62002385F82430EB622B6A1B4A9A6286
:101620002B6A1B4ADA622B6A1A4A1A632B686FF01C
:1016300002021A602A68936843F4807393602968F1
:101640003B4632464C31286A00F020F92A689368FC
:1016500003F46023B3F5602F09D0936843F480133B
:101660009360B8E76846FFF7A5FD0446BEE79368B8
:1016700043F4A0039360AEE7002385F82430AAE783
:101680000224A8E700280140FEFCEFFF3911000802
:101690008D11000899110008034690F82420012AB2
:1016A00020D0012280F824200268906810F0010FF9
:1016B00007D10D48806810F0010F02D10B4882421B
:1016C00008D09A6A42F020029A620120002283F830
:1016D00024207047506820F470200968014351604D
:1016E0000020F3E702207047002801400024014059
:1016F000074AD36823F4E0631B041B0C000200F4C8
:10170000E060184340F0BF6040F40030D0607047A4
:1017100000ED00E030B4174BDB68C3F30223C3F1E4
:101720000704042C28BF04241D1D062D18D9033BD3
:101730004FF0FF3505FA04F421EA0401994005FA57
:1017400003F322EA0303194300280BDB0901C9B2A2
:1017500000F1604000F5614080F8001330BC704734
:101760000023E5E700F00F000901C9B2024B19544C
:10177000F4E700BF00ED00E014ED00E000F01F0210
:10178000400901239340024A42F82030704700BFCD
:1017900000E100E00138B0F1807F0AD2064B5860CA
:1017A000064AF02182F823100020986007221A6070
:1017B00070470120704700BF10E000E000ED00E03E
:1017C000042805D0054A136823F00403136070470A
:1017D000024A136843F004031360704710E000E00E
:1017E00008B502F029F808BD70B4066CC56B012479
:1017F000B4406C60046863604368102B05D00368D4
:1018000099600368DA6070BC704703689A60036887
:10181000D960F8E7002830D010B403460168184AB0
:101820000A441848A0FB0202120992001A64164AE0
:10183000DA63022283F82120086820F47F5020F028
:1018400030005A689C682243DC6822431C692243AA
:101850005C6922439C692243DC69224302430A609B
:1018600000209862D862186358639863012283F855
:10187000212083F8200010BC70470120704700BF72
:10188000F8FFFDBFCDCCCCCC0000024038B590F8BD
:101890002040012C32D0012480F8204090F82140D3
:1018A000012C04D0002380F82030022038BD0446EB
:1018B000022084F821000020A0632568286820F019
:1018C000010028602046FFF78FFFE36A5BB12268C2
:1018D000136843F00E0313602268136843F001039A
:1018E00013600020E2E72268136823F0040313600A
:1018F0002268136843F00A031360EDE70220D5E77E
:1019000038B5C36B1A6804682568016C04238B40E2
:10191000134235D015F0040F32D0236813F0200F96
:1019200003D1236823F0040323600368434A9342EE
:1019300014D01432934218D01432934217D0143278
:10194000934217D01432934217D01432934202D0EC
:101950004FF0806203E04FF4800200E00422384B35
:101960005A60C36A03B1984738BD4022F7E74FF485
:101970008062F4E74FF48042F1E74FF48022EEE713
:1019800002238B4013423CD015F0020F39D023685C
:1019900013F0200F06D1236823F00A0323600123EC
:1019A00080F821300368254A934214D014329342C0
:1019B0001CD0143293421BD0143293421BD01432E9
:1019C00093421BD01432934202D04FF0007203E0D6
:1019D0004FF4001200E00222194B5A60002380F8F5
:1019E0002030836A002BBFD09847BDE72022F3E761
:1019F0004FF40072F0E74FF40052EDE74FF400327D
:101A0000EAE7082303FA01F11142ADD015F0080FFF
:101A1000AAD0236823F00E032360026CC16B01235C
:101A200003FA02F24A60836380F82130002380F8D1
:101A30002030036B002B97D0984795E708000240B1
:101A400000000240F0B482B000263546A1E0002C30
:101A500059D0012C00D1CE68FF2B68D88446FF2BCB
:101A600068D8AC00DCF800200F27A74022EA070264
:101A700006FA04F42243CCF800204A6812F0805F92
:101A800000F086805E4A946944F001049461926992
:101A900002F001020192019AAC08A71C594A52F8BF
:101AA000272005F00307BF004FF00F0C0CFA07FCCE
:101AB00022EA0C0C544A904242D002F580629042D5
:101AC0007FD002F5806290427DD002F58062904224
:101AD00034D0042235E04D4FBC4214D00BD94C4FCA
:101AE000BC4210D007F58037BC420CD0A7F5801758
:101AF000BC42B1D107E0A7F58017BC4203D007F57F
:101B00008037BC42A8D18C687CB1012C08D04261DE
:101B10000826A1E7CE6808369EE7CE680C369BE71C
:101B20000261082698E7002696E7042694E700F16C
:101B3000040C94E7A5F10804A40093E7032200E055
:101B40000022BA4042EA0C0202342E4F47F8242009
:101B50004A6812F4803F38D02E4C22681A43226023
:101B60004A6812F4003F36D02A4C62681A43626019
:101B70004A6812F4801F34D0264CA2681A43A2602F
:101B80004A6812F4001F32D0224CE2681343E3602B
:101B900001350F2D31D80122AA400B6813409A421B
:101BA000F6D14C68122CB8D095D8022CB2D07FF662
:101BB0004EAF032CB7D0112C7FF44EAFCE68043655
:101BC0004AE70122BDE70222BBE7124C226822EA63
:101BD00003022260C4E70F4C626822EA03026260DB
:101BE000C6E70C4CA26822EA0302A260C8E7094CCF
:101BF000E26822EA0303E360CAE702B0F0BC704780
:101C000000100240000001400008014000002110C7
:101C100000003110000401408368194201D1002006
:101C200070470120704712B90904016170470161D2
:101C3000704703685A6912F4806F0DD06FF48062A8
:101C40005A610423036400230363202280F83D20AB
:101C500080F83C300120704700207047F8B50646F8
:101C60000C4617461D461EE02DB1FFF74BFA069BAA
:101C7000C01AA84217D900233363202286F83D20DA
:101C800086F83E3086F83C3003201AE033685B6902
:101C900024EA03039BB2B3FA83F35B099F420FD19B
:101CA000B5F1FF3FE0D1C4F30743012BEED0336819
:101CB0009B6924EA03039BB2B3FA83F35B09EDE764
:101CC0000020F8BDF8B504460D4616461F4632E022
:101CD0001A6842F400721A6023686FF480625A61D5
:101CE0000423236400232363202284F83D2084F806
:101CF0003C3001202DE026B1FFF704FAC01BB042B2
:101D000019D900232363202284F83D2084F83C3035
:101D100003201EE023685B6925EA03039BB20033BE
:101D200018BF0123A3B123685A6912F4806FCFD181
:101D3000B6F1FF3FDFD1C5F30743012BEAD023689B
:101D40009B6925EA03039BB2003318BF0123E9E72F
:101D50000020F8BD70B504460D46164623685B6941
:101D600013F0800F19D12046FFF763FFB8B9B5F122
:101D7000FF3FF3D025B1FFF7C5F9801BA842EDD98D
:101D8000236C43F02003236400232363202284F880
:101D90003D2084F83C30032000E0002070BD01208D
:101DA000FCE700002DE9F04184B004460E461746DA
:101DB00098460B9D0268136843F480731360009586
:101DC0000A9B00224FF00111FFF748FF002847D17E
:101DD000236806F0FE061E612B460A9A2649204615
:101DE000FFF770FF20B1236C042B3ED1012338E0B4
:101DF0000023039323685A6903929B690393039B0F
:101E00002A460A992046FFF7A5FF034648B1236CEE
:101E1000042B2CD12268136843F400731360012350
:101E20001FE0B8F1010F13D023683A0A1A612A465D
:101E30000A992046FFF78EFF034668B1236C042BF6
:101E400017D12268136843F400731360012308E07C
:101E50002268FFB2176104E02268FFB2176100E058
:101E60000323184604B0BDE8F0810323F9E70323F8
:101E7000F7E70323F5E700BF0200010070B5044651
:101E80000D46164623685B6913F0040F19D12046EE
:101E9000FFF7CFFEB8B9B5F1FF3FF3D025B1FFF79B
:101EA00031F9801BA842EDD9236C43F02003236451
:101EB00000232363202284F83D2084F83C30032053
:101EC00000E0002070BD0120FCE70000002800F0C9
:101ED000A28038B5044690F83D30002B4FD0242323
:101EE00084F83D302268136823F00103136000F08A
:101EF0005DFC62684A4B9A4246D84A4B98428CBF76
:101F000000230123002B40F08880474BA3FB0023D4
:101F10009B0C226853606168414A91423AD8013370
:101F20002268136261683E4B99423DD8431E4900C6
:101F3000B3FBF1F30133C3F30B03042B38BF0423CA
:101F40002268D361E369216A22680B431360236925
:101F5000E16822680B4393606369A16922680B43BF
:101F6000D3602268136843F00103136000202064EB
:101F7000202384F83D30206384F83E0038BD80F88B
:101F80003C3002F061FBAAE7284B98428CBF00234B
:101F90000123B7E74FF4967202FB03F3244AA2FB36
:101FA00003239B090133BBE7A368BBB9421E01EBC6
:101FB0004105B2FBF5F20132C2F30B02B2FA82F232
:101FC000520932BBC3B9013801EB4103B0FBF3F353
:101FD0000133C3F30B0343F40043B1E7421E01EBAB
:101FE000810505EB8505B2FBF5F20132C2F30B0268
:101FF000B2FA82F25209E4E7013801EB810303EB04
:102000008303B0FBF3F30133C3F30B0343F4404307
:1020100096E7012394E7012070470120AEE700BF57
:10202000A08601007F841E0083DE1B43FF083D0065
:10203000D34D62102DE9F04182B004460E4617469A
:102040009846FFF75FF894F83D30DBB2202B04D0C0
:102050000223184602B0BDE8F0810546009019231E
:10206000012251492046FFF7F9FD002840F09380F6
:1020700094F83C30012B00F09080012384F83C3030
:1020800023681A6812F0010F03D11A6842F00102A6
:102090001A602268136823F400631360212384F814
:1020A0003D30402384F83E3000232364089B636264
:1020B000BDF8243063853D4BE362638D2385019534
:1020C0000A9B009343463A4631462046FFF76AFE94
:1020D000B0B1236C042B04D1002384F83C300123DD
:1020E000B7E7002384F83C300323B2E7236C042BCA
:1020F00055D12268136843F4007313600123A8E7E5
:10210000238D002B28D02A460A992046FFF722FE6D
:102110000028EBD1636A5A1C626222681B78136143
:10212000238D013B9BB22385628D013A92B2628579
:102130002268516911F0040FE2D0002BE0D0636AED
:10214000591C61621B781361238D013B2385638DCC
:10215000013B9BB26385D3E72A460A992046FFF7E5
:102160008DFE034648B1236C042B1AD122681368F4
:1021700043F40073136001236BE721680A6842F49B
:1021800000720A60202284F83D20002284F83E205C
:1021900084F83C205DE702235BE7022359E7032331
:1021A00057E7032355E700BF020010000000FFFFC0
:1021B00082B0084B1B68084AA2FB03235B0A00FBA2
:1021C00003F0019000BF019B5A1E0192002BF9D130
:1021D00002B070472C000020D34D621070B582B061
:1021E0000446036813F0010F2CD0AB4B5B6803F07F
:1021F0000C03042B1DD0A84B5B6803F00C03082BC9
:1022000012D06368B3F5803F41D0002B55D103F164
:10221000804303F504331A6822F480321A601A6886
:1022200022F480221A6037E09B4B5B6813F4803FF6
:10223000E7D0994B1B6813F4003F03D06368002B71
:1022400000F0AE81236813F0020F76D0924B5B68EA
:1022500013F00C0F5FD0904B5B6803F00C03082B5E
:1022600054D02369002B00F08A808C4B01221A6025
:10227000FEF748FF0546884B1B6813F0020F75D127
:10228000FEF740FF401B0228F5D903208BE1824A6C
:10229000136843F480331360636843B3FEF732FF7F
:1022A00005467D4B1B6813F4003FCBD1FEF72AFF98
:1022B000401B6428F5D9032075E1B3F5A02F09D0A0
:1022C000754B1A6822F480321A601A6822F4802250
:1022D0001A60E1E703F18043A3F53C331A6842F446
:1022E00080221A601A6842F480321A60D4E7FEF73E
:1022F00009FF0546684B1B6813F4003FA2D0FEF7A8
:1023000001FF401B6428F5D903204CE1624B5B6858
:1023100013F4803FA5D1604B1B6813F0020F04D06B
:102320002369012B01D001203DE15B4A136823F0B2
:10233000F803616943EAC1031360236813F0080FCF
:1023400032D0A369002B5BD0554B01221A60FEF7F7
:10235000D9FE0546504B5B6A13F0020F21D1FEF700
:10236000D1FE401B0228F5D903201CE14A4A13681C
:1023700023F0F803616943EAC1031360DDE7474BCB
:1023800000221A60FEF7BEFE0546434B1B6813F0A1
:10239000020FD2D0FEF7B6FE401B0228F5D903206B
:1023A00001E10120FFF704FF236813F0040F00F0A0
:1023B0009780394BDB6913F0805F33D1364BDA6994
:1023C00042F08052DA61DB6903F080530193019B94
:1023D0000125344B1B6813F4807F25D0E368012B63
:1023E00036D0002B4CD103F1804303F504331A6A35
:1023F00022F001021A621A6A22F004021A622CE028
:10240000274B00221A60FEF77DFE0546224B5B6AD1
:1024100013F0020FC8D0FEF775FE401B0228F5D955
:102420000320C0E00025D4E71E4A136843F48073FC
:102430001360FEF767FE06461A4B1B6813F4807F95
:10244000CCD1FEF75FFE801B6428F5D90320AAE0FB
:10245000114A136A43F001031362E36873B3FEF792
:1024600051FE06460C4B1B6A13F0020F37D1FEF7E4
:1024700049FE801B41F288339842F3D9032092E051
:10248000052B11D0044B1A6A22F001021A621A6A53
:1024900022F004021A62E0E700100240000042420B
:1024A0008004424200700040414B1A6A42F004022C
:1024B0001A621A6A42F001021A62CEE7FEF722FEA1
:1024C00006463B4B1B6A13F0020F08D0FEF71AFEBC
:1024D000801B41F288339842F3D9032063E0E5B9C9
:1024E000E369002B5ED0324A526802F00C02082ADF
:1024F0005BD0022B17D02F4B00221A60FEF702FE92
:1025000004462B4B1B6813F0007F47D0FEF7FAFD03
:10251000001B0228F5D9032045E0254AD36923F0A2
:102520008053D361DCE7234B00221A60FEF7EAFDFB
:1025300005461F4B1B6813F0007F06D0FEF7E2FD37
:10254000401B0228F5D903202DE0236AB3F5803F14
:102550001AD017494B6823F47413226A606A024345
:1025600013434B60134B01221A60FEF7CBFD044668
:102570000F4B1B6813F0007F0ED1FEF7C3FD001B4D
:102580000228F5D903200EE0094A536823F40033EA
:10259000A1680B435360DCE7002004E0002002E068
:1025A000012000E0002002B070BD0120FBE700BF69
:1025B000001002406000424210B487B0164C94E80C
:1025C0000F000DF1180C0CE90F00238AADF8043050
:1025D000124B5B6803F00C02082A1AD1C3F3834242
:1025E000624412F8102C13F4803F05D10C4800FB14
:1025F00002F007B010BC7047084B5B68C3F3404360
:10260000634413F8143C074800FB02F0B0FBF3F0FE
:10261000EFE70448EDE700BF2C530008001002402C
:1026200000093D0000127A00594B1B6803F00703B4
:102630008B420CD2564A136823F007030B431360F6
:10264000136803F007038B4201D00120704770B577
:10265000036813F0020F06D04E4A536823F0F003CC
:102660008468234353600C460546036813F0010F4A
:1026700052D04368012B23D0022B28D0454A126840
:1026800012F0020F00F0828042494A6822F00302F1
:1026900013434B60FEF736FD06466B68012B1DD0D9
:1026A000022B2AD03B4B5B6813F00C0F34D0FEF7A3
:1026B00029FD801B41F288339842F3D9032064E05E
:1026C000344A126812F4003FDED101205DE0314A45
:1026D000126812F0007FD7D1012056E02D4B5B68C5
:1026E00003F00C03042B17D0FEF70CFD801B41F206
:1026F00088339842F2D9032047E0264B5B6803F009
:102700000C03082B08D0FEF7FDFC801B41F2883338
:102710009842F2D9032038E01D4B1B6803F00703F1
:10272000A3420CD91A4A136823F00703234313600A
:10273000136803F00703A34201D0012025E02B68B2
:1027400013F0040F06D0134A536823F4E063E968DA
:102750000B4353602B6813F0080F07D00D4A5368E2
:1027600023F46053296943EAC1035360FFF724FF50
:10277000084B5B68C3F30313074AD35CD840074B8D
:1027800018600020FEF77CFC002070BD0120FCE7F3
:102790000020024000100240545300082C0000208A
:1027A000014B1868704700BF2C00002008B5FFF7E8
:1027B000F7FF044B5B68C3F30223034AD35CD840A2
:1027C00008BD00BF001002406453000808B5FFF7C1
:1027D000E7FF044B5B68C3F3C223034AD35CD840D2
:1027E00008BD00BF001002406453000870B582B0FD
:1027F0000446036813F0010F34D03E4BDB6913F03D
:10280000805F48D13B4BDA6942F08052DA61DB6984
:1028100003F080530193019B0125374B1B6813F490
:10282000807F3AD0334B1B6A13F4407311D0626837
:1028300002F440729A420CD02E4A136A23F440707C
:102840002E4901260E6000260E60106213F0010F63
:1028500037D1284A136A23F4407361680B4313622B
:10286000002D3FD1236813F0020F06D0214A536890
:1028700023F44043A1680B435360236813F0100F07
:1028800035D01C4A536823F48003E1680B4353603E
:10289000002002B070BD0025BFE7174A136843F45B
:1028A00080731360FEF72EFC0646134B1B6813F46F
:1028B000807FB7D1FEF726FC801B6428F5D9032062
:1028C000E7E7FEF71FFC06460A4B1B6A13F0020FF0
:1028D000BFD1FEF717FC801B41F288339842F3D931
:1028E0000320D6E7D36923F08053D361BAE70020F1
:1028F000CFE700BF00100240007000404004424299
:1029000030B587B00546384C94E80F000DF1180C2F
:102910000CE90F00238AADF80430022D50D0102DA1
:1029200003D0012D2BD0002054E0304B5A681B6897
:1029300013F0807F50D0C2F3834306A90B4413F8F1
:10294000100C12F4803F16D0284B5B68C3F3404351
:102950000B4413F8142C264BB3FBF2F300FB03F0EB
:10296000224B5B6813F4800F34D14000214BA3FB52
:10297000003040082EE0204B03FB00F0F0E71B4B3B
:102980001B6A40F202321A40B2F5817F26D003F46E
:102990004073B3F5007F04D0B3F5407F09D0002029
:1029A00018E0124A526A12F0020FF5D049F6404080
:1029B00010E00E4B1B6813F4003F12D1002009E019
:1029C000FFF704FF094B5B68C3F3813301335B00FE
:1029D000B0FBF3F007B030BD0020FBE74FF4004040
:1029E000F8E74FF22440F5E740530008001002409A
:1029F00000127A00ABAAAAAA00093D0010B4036A2B
:102A0000046A24F001040462846924F0F00444EAB6
:102A1000021223F00A030B438261036210BC704769
:102A200010B4036A23F0100303628469036A24F478
:102A3000704444EA023223F0A00343EA01138261A6
:102A4000036210BC7047836823F0700341F00701F4
:102A500019438160704710B4846824F47F4442EACB
:102A600003230B432343836010BC70470268D36881
:102A700043F00103D3600268136843F0010313605D
:102A80000020704790F83C30012B7DD010B50446F3
:102A9000012380F83C30022380F83D3002689368BF
:102AA00023F47F4323F0770393600B68402B57D0C8
:102AB00010D9702B3ED01FD8502B47D0602B32D16D
:102AC000CA6849680068FFF7ABFF60212068FFF71C
:102AD000BAFF28E0102B4DD008D9202B4FD0302B37
:102AE00021D130210068FFF7AEFF1CE0DBB90021E7
:102AF0000068FFF7A8FF16E0B3F5805F0ED0B3F5CE
:102B0000005F10D1CB684A6889680068FFF7A3FFAF
:102B10002268936843F48043936004E002689368FA
:102B200023F007039360012384F83D30002084F8EC
:102B30003C0010BDCB684A6889680068FFF78BFFCE
:102B40002268936843F077039360ECE7CA684968AA
:102B50000068FFF753FF50212068FFF774FFE2E79A
:102B6000CA6849680068FFF749FF40212068FFF7FD
:102B70006AFFD8E710210068FFF765FFD3E720213F
:102B80000068FFF760FFCEE702207047704770478C
:102B900070477047704710B5044603681A6912F011
:102BA000020F11D0DA6812F0020F0DD06FF002029E
:102BB0001A610123037703689B6913F0030F70D038
:102BC000FFF7E6FF0023237723681A6912F0040F4A
:102BD00012D0DA6812F0040F0ED06FF004021A61FE
:102BE0000223237723689B6913F4407F5FD020463C
:102BF000FFF7CEFF0023237723681A6912F0080F2E
:102C000012D0DA6812F0080F0ED06FF008021A61C5
:102C1000042323772368DB6913F0030F4ED020468B
:102C2000FFF7B6FF0023237723681A6912F0100F0D
:102C300012D0DA6812F0100F0ED06FF010021A6185
:102C4000082323772368DB6913F4407F3DD02046B7
:102C5000FFF79EFF0023237723681A6912F0010F04
:102C600003D0DA6812F0010F36D123681A6912F026
:102C7000800F03D0DA6812F0800F34D123681A690C
:102C800012F0400F03D0DA6812F0400F32D12368FF
:102C90001A6912F0200F03D0DA6812F0200F30D139
:102CA00010BDFFF774FF2046FFF773FF8AE7204649
:102CB000FFF76DFF2046FFF76CFF9BE72046FFF70D
:102CC00066FF2046FFF765FFACE72046FFF75FFF92
:102CD0002046FFF75EFFBDE76FF001021A61204654
:102CE000FFF754FFC1E76FF080021A61204600F041
:102CF0008CF8C3E76FF040021A612046FFF74AFFE5
:102D0000C5E76FF020021A61204600F07DF8C7E7A2
:102D100003681B4A90420AD0B0F1804F07D0A2F559
:102D20009432904203D002F58062904203D123F0A6
:102D300070034A681343124A90420AD0B0F1804FA0
:102D400007D0A2F59432904203D002F580629042FF
:102D500003D123F44073CA68134323F080034A6904
:102D6000134303608B68C3620B688362044B984211
:102D700002D00123436170470B690363F9E700BF89
:102D8000002C0140A8B110B5044690F83D305BB16D
:102D9000022384F83D30211D2068FFF7B9FF01238D
:102DA00084F83D30002010BD80F83C3001F070FC0C
:102DB000EEE70120704790F83C30012B22D030B470
:102DC000012280F83C20022380F83D3004686368CB
:102DD00023F070036360046863680D682B436360CD
:102DE0000468A36823F08003A3600468A3684968AB
:102DF0000B43A36080F83D20002380F83C30184648
:102E000030BC7047022070477047704770B588B07B
:102E10001C4B9A6942F020029A619A6902F02002E2
:102E20000192019A9A6942F004029A619A6902F049
:102E300004020292029A9A6942F008029A619B691E
:102E400003F008030393039B0F4C00224FF480719F
:102E50002046FEF7E8FEF0230493002505950126A1
:102E6000069604A90948FEF7EDFD4FF4807304931C
:102E7000059606950323079304A92046FEF7E2FD75
:102E800008B070BD00100240000C01400008014075
:102E900000B583B00A4B5A6942F001025A615B697E
:102EA00003F001030193019B002211460B20FEF762
:102EB00031FC0B20FEF762FC03B05DF804FB00BFA1
:102EC0000010024008B501F09FFC08BD10F0010F92
:102ED00007D100EBD0704010054B53F82000000CD8
:102EE000704700EBD0704010014B33F82000704762
:102EF0005C06002000000000642941D0C82942D0AF
:102F000008B5B1F5FA7F0BD0B1F57A7F1AD0B1F5DB
:102F1000FA6F20D041F2883399422FD000200FE081
:102F2000FDF768FA1AA3D3E90023FDF715F9FDF7B9
:102F300065FD1D4B83FB0023A3EBE070002824DB21
:102F400080B208BDA0F26660174B83FB0023C01758
:102F5000C0EB6300F2E7FDF74DFA0FA3D3E90023BE
:102F6000FDF7FAF8FDF74AFDFDF744FA0CA3D3E9A3
:102F70000023FDF7D3FBFDF741FDDFE78011DDE71F
:102F8000002080B270470020FBE70020D8E700BF98
:102F9000CDCCCCCCCCCC9C40333333333333934087
:102FA0009A99999999993940ABAAAA2A2DE9F04F93
:102FB00083B09B464FF6FF73994244D004460D46BA
:102FC00090469B453FD03F2900D93F25BBF13F0F9D
:102FD00001D94FF03F0BA8EB0407002FB8BF7F4289
:102FE000A04526D901230093ABEB050ABAF1000FE7
:102FF000B8BFCAF1000ACAF100095D451DD201231C
:103000000193A7EB0A060022E9B2E0B201F066FCE8
:10301000444516D07300994504DCA6EB0A06009AD5
:103020001444A4B29F42EEDB3E44019B1D44ADB26A
:10303000E9E74FF0FF330093D6E74FF0FF330193FA
:10304000DFE75D45E6D103B0BDE8F08F70B58AB02B
:10305000002406E000222021E0B201F03FFC05E060
:1030600001347F2C4BDC14F0010FF3D0C54A82FBF6
:103070000432E317C3EBA20303EB83035A00944229
:10308000EED1E5B20022E421284601F027FC00221F
:10309000EE21284601F022FC0022F821284601F00A
:1030A0001DFC00220221284601F018FC00220C2100
:1030B000284601F013FC00221621284601F00EFCE0
:1030C00000222A21284601F009FC0022342128464A
:1030D00001F004FC00223E21284601F0FFFB002203
:1030E0004821284601F0FAFB00225221284601F02F
:1030F000F5FB00225C21284601F0F0FBB0E700243C
:1031000000E001343F2C0EDC14F0010FF9D1E5B2E0
:1031100000222946322001F0E1FB002229466420EA
:1031200001F0DCFBEDE7002400E001347F2C13DC30
:10313000954B83FB0423A3EBE47303EB43039C4213
:10314000F3D0924B19689888FFF7D6FE0022C1B2DF
:10315000E0B201F0C3FBE8E7002406E0A1B20B46B1
:1031600093226420FFF722FF0134142CF6DD2D2476
:1031700006E0A1B20B4693226420FFF717FF01344B
:103180003F2CF6DD8422824906A801F0BBFC002119
:103190006E2001F04BFC7F4B012200920ECB06A863
:1031A00001F02AFC794B1B68B3F57A7F58D00CDD0F
:1031B000B3F5FA6F5AD041F2883293420DD198227A
:1031C000754906A801F09EFC07E0B3F5FA7F04D12B
:1031D0009522714906A801F095FC0B216D2001F0A4
:1031E00025FC6C4C0125009594E80E0006A801F022
:1031F00003FC0B21772001F019FC8322664906A805
:1032000001F080FC009594E80E0006A801F0F4FBA4
:103210005E4B9B68B3F57A7F00F01B812CDD44F692
:103220002062934200F0398140F393805B4A9342DD
:1032300000F03F8140F3C080594A934200F046813C
:10324000584A93422FD1584B93E8030002908DF8CF
:103250000C1080238B22554906A801F053FC22E074
:1032600096224D4906A801F04DFCB6E797224A493F
:1032700006A801F047FCB0E7322B00F0C68054DC12
:103280000A2B00F0AA80142B00F0B380052B0AD182
:103290008D22474902A801F035FC82238E22434942
:1032A00006A801F02FFC2D21672001F0BFFB394C4F
:1032B0000125009594E80E0006A801F09DFB364E0E
:1032C0008322314606A801F01DFC2D21772001F054
:1032D000ADFB009594E80E0006A801F08DFB3621A9
:1032E000672001F0A3FB009594E80E0002A801F00E
:1032F00083FB7F22314602A801F004FC36217720AF
:1033000001F094FB009594E80E0002A801F074FB14
:103310001E4BDB68022B00F0F180032B00F0FA80DB
:10332000AB4200F0E0800AB070BDC82B79D0B3F595
:10333000FA7F00F08280642BB5D193221D4902A848
:1033400001F0E0FB82239222184906A801F0DAFB83
:10335000A9E741F28832934200F0878042F210726E
:10336000934200F08E80B3F5FA6F9CD19022114900
:1033700002A801F0C7FB81238D220C4906A801F0A9
:10338000C1FB90E7676666665655555508000020F4
:10339000C47F000854000020C87F0008A0860100F8
:1033A000400D030020A10700DC7F0008D07F00084B
:1033B000CC7F0008D87F00084CF2503293427FF453
:1033C00072AF8D225C4902A801F09CFB81239122FF
:1033D0005A4906A801F096FB65E78D22584902A8D4
:1033E00001F090FB82238F22544906A801F08AFB4A
:1033F00059E78D22524902A801F084FB82239022D2
:103400004E4906A801F07EFB4DE78D224C4902A8EB
:1034100001F078FB82239122484906A801F072FB53
:1034200041E79322444902A801F06CFB82239322D6
:10343000424906A801F066FB35E793223E4902A8FF
:1034400001F060FB822394223C4906A801F05AFB5C
:1034500029E79022384902A801F054FB81238C22ED
:10346000364906A801F04EFB1DE79022324902A81A
:1034700001F048FB81238E22304906A801F042FB6F
:1034800011E78D222C4902A801F03CFB81238F22F9
:103490002A4906A801F036FB05E78D22264902A835
:1034A00001F030FB81239022244906A801F02AFB79
:1034B000F9E6244B93E8030002908DF80C1080236A
:1034C00089221E4906A801F01DFBECE61D4B93E87E
:1034D000030002908DF80C1080238A22174906A859
:1034E00001F010FBDFE62C215D2001F09FFA009532
:1034F00094E80E00144801F07FFA14E709215D20DA
:1035000001F094FA114B012200920ECB0E4801F00B
:1035100073FA08E70E4B19689888FFF7EDFC011F56
:10352000C9B2002001F082FA084B012200920ECBB2
:10353000054801F061FAF6E6D87F0008D07F000860
:10354000CC7F0008DC7F0008E47F000854000020E6
:1035500008000020F0B583B00023ADF806304D4CD4
:10356000208AFDF72DFB6169FDF776FA06463224C5
:103570000EE00022E9B2E0B201F0B0F90134A4B2E9
:10358000ADF80650434B59693046FDF765FA0646DB
:10359000404B5F69188AFDF713FB3946FDF75CFA6B
:1035A00005463D493846FDF75FFB01462846FDF7D5
:1035B00053FA3146FDF714FD08B33046FDF71AFD06
:1035C000FFF784FC0546B0F5805F04D2314B1968E3
:1035D000FFF792FC05462F4B9B69322C0CBF002352
:1035E00003F00103002BC4D0BDF80610601E2B466B
:1035F000224680B2FFF7DAFC0134A4B2C0E73224DD
:103600000EE00022F1B2E0B201F068F9013CA4B290
:10361000ADF806601F4B59692846FDF71BFA0546B1
:103620001C4B5E69188AFDF7CBFA3146FDF714FA98
:1036300007461A493046FDF717FB01463846FDF7A5
:1036400009FA2946FDF7AEFC08B32846FDF7D2FC7F
:10365000FFF73CFC0646B0F5805F04D20D4B1968BD
:10366000FFF74AFC06460B4B9B69322C0CBF00232C
:1036700003F00103002BC4D0BDF80610601C3346D4
:10368000224680B2FFF792FC013CA4B2C0E703B02F
:10369000F0BD00BF0800002000009C42000048422E
:1036A00070B55C4B1B685C4A9468A34215D0594DB9
:1036B00000236B6013460222DA6159695748FDF70F
:1036C000C9F94FF07C51FDF7CFFA5549FDF7C2F922
:1036D000FDF790FCA8600123EB604E4B1C6042F2AA
:1036E0000F739C4202DC4B4B0122DA6042F21073F2
:1036F0009C4207D044F620639C4203D04CF25033E6
:103700009C4210D1434B5B68002B31D1454A116874
:10371000454A1160DB433F4A53603F4BDA6940F64C
:10372000B8339A4235D03C4B9B68404A934205D00F
:103730003F4A934202D03F4A934218D1354B5B68CF
:10374000002B2DD1334CA068364931F8202041F8A8
:1037500020204D8842EA05426FEA12426FEA024297
:1037600041F82020DB4363602A4B0122DA6070BD00
:103770002D4A50882B4C218841EA0041116026488F
:10378000C26944F822100132C261DB43214A53600E
:10379000C3E7214B0222DA611E4B0122DA60C2E745
:1037A0001C4DA8681F4951F82020120C120441F842
:1037B00020204C88224341F82020441C51F824202A
:1037C0006FEA02426FEA124241F82420DB436B6049
:1037D000FDF7F6F90546104B59691048FDF73AF91F
:1037E0004FF07C51FDF740FA0D49FDF733F90646DD
:1037F0004FF08541FDF730F901462846FDF7D2FB31
:1038000010B1044B9C60AFE73046FDF7F3FB014B72
:103810009860A9E7E00000200800002000803B45F8
:103820000000C8415C060020E4050020A0860100DD
:10383000400D030020A107007047000010B5254C83
:10384000227C4FF480712448FEF7EDF92369DB43B5
:1038500023616369002B01DD013B63611F4B9B68A2
:1038600042F21072934207D044F62062934203D092
:103870004CF25032934207D11948FDF7DBFC01228C
:1038800018491948FDF78EFE144B9B68174A93425E
:1038900005D0174A934202D0164A93420CD1164AD9
:1038A00082FB0312DB17C3EBE2230A4A92699342BD
:1038B00003DD0132074B9A6110BD064B00229A616D
:1038C0000748FDF7B7FC012206490748FDF76AFEE5
:1038D000F2E700BFE0000020000C014008000020DB
:1038E000600500205C060020E8050020A08601009D
:1038F000400D030020A10700AD8BDB68FEE7000050
:1039000008B50548054B4360FEF7E0FA00B908BD6D
:10391000BF210348FFF7F2FF9005002000350C009F
:10392000E87F000810B58AB004460F2305930223F0
:103930000693002307934FF4806308931C4B98422F
:103940001ED01C4B9C421ED01B4B9C421FD0022100
:1039500005A8FEF769FEF0B902230193144B9C42BF
:1039600002D0144B9C4202D14FF480430393124B7C
:103970009C4214D001A8FEF739FFA0B90AB010BDCF
:1039800000230993DDE74FF4C0630993DCE74FF4AC
:10399000E0630993DBE7EF210848FFF7AFFF4FF43F
:1039A00040430393E6E7FE210448FFF7A7FF00BF6B
:1039B000809FD500F0B31A00FCAC0600E87F000839
:1039C0002DE9F8439F4B5B69002B01DDBDE8F883CF
:1039D00010219D48FEF720F9002830D1994B012293
:1039E000DA61984B1A6ADB699A42EFD0954A136202
:1039F000032B43D0042B55D0944AD268012A65D0BA
:103A0000924BDB68012B00F04F81904BDC68022C5D
:103A100000F03082022C00F05882032C00F0A082CB
:103A2000032C00F0CB82874B28225A618848FDF78F
:103A300001FC012287498848FDF7B4FDC6E7202133
:103A40008148FEF7E9F818B97E4B0222DA61C8E72F
:103A500040217D48FEF7E0F818B97A4B0322DA617D
:103A6000BFE780217848FEF7D7F818B9754B0422D4
:103A7000DA61B6E7734B0022DA61B2E7734AD268C3
:103A8000022A07D0032A09D0012AB3D16F4A0221A2
:103A9000D160AFE76D4A0321D160ABE76B4A0121EA
:103AA000D160A7E7694AD268022A0BD0032A05D061
:103AB000012AA1D1654A0321D1609DE7634A022111
:103AC000D16099E7614A0121D16095E7012B97D137
:103AD0005E4B9B68B3F57A7F00F093801CDD44F663
:103AE0002062934200F0A68045DD5C4A934200F0DC
:103AF000CD8052DD5A4A934200F0CF80594A93421A
:103B00001DD1524C58482062FFF70CFF0523A360DB
:103B10004FF07E53636112E0322B56D01EDC0A2B2D
:103B200046D0142B4BD0052B09D1484C4E4820626F
:103B3000FFF7F8FE0A23A3604FF080436361464D10
:103B40002846FDF79BFC424C2046FDF797FC284693
:103B5000FDF7B2FC2046FDF7AFFC51E7C82B3ED085
:103B6000B3F5FA7F42D0642BE9D1384BC8229A6072
:103B70003E4A5A61E3E741F28832934248D042F22A
:103B8000107293424ED0B3F5FA6FD8D12F4B41F259
:103B900088329A60364A5A61D1E74CF250329342E9
:103BA000CDD12A4B2D4A9A604FF07E525A61C6E71A
:103BB000264B14229A604FF081425A61BFE7234B93
:103BC00032229A602B4A5A61B9E7204C2A48206277
:103BD000FFF7A8FE6423A360284B6361AFE71B4B8C
:103BE0004FF4FA729A60264A5A61A8E7174C2548A2
:103BF0002062FFF797FE4FF47A73A360224B636154
:103C00009DE7124B4FF4FA629A601D4A5A6196E79B
:103C10000E4B154A1A6242F210729A604FF08042BF
:103C20005A618CE7094B44F620629A604FF081425A
:103C30005A6184E7054B4CF250329A600D4A5A6142
:103C40007DE700BFE00000200008014008000020E0
:103C5000600500205C060020E8050020A086010029
:103C6000400D030020A10700809FD5000000A04068
:103C70000000FA4100002041F0B31A00000020408B
:103C800000004841FCAC06000000C840A44BA54A17
:103C90009A604FF07E525A6151E7A14BA24A9A6056
:103CA0004FF07E525A614AE7A04BDB69022B7FF44A
:103CB000ACAE9B4B9B68B3F57A7F00F0A48018DD17
:103CC00044F62062934200F0BF8045DD984A93425B
:103CD00000F0C28056DD934A934200F0C480924ABD
:103CE000934219D18E4B8F4A9A604FF07E525A619F
:103CF00012E0322B68D01EDC0A2B4FD0142B58D088
:103D0000052B09D1864C8B482062FFF70BFE864BB2
:103D1000A3604FF07E536361874D2846FDF7AEFBED
:103D2000864C2046FDF7AAFB2846FDF7C5FB20463A
:103D3000FDF7C2FB69E6C82B51D0B3F5FA7F58D026
:103D4000642BE9D1764C7B482062FFF7EBFD3223F0
:103D5000A3607B4B6361DFE741F2883293425DD021
:103D600042F21072934264D0B3F5FA6FD4D16C4C26
:103D700074482062FFF7D6FD4FF47A73A360724B4C
:103D80006361C9E74CF250329342C5D1644B44F6AB
:103D900020629A604FF081425A61BDE7604C6548ED
:103DA0002062FFF7BFFD0523A3604FF07E536361E0
:103DB000B2E75B4C5F482062FFF7B4FD0A23A360C3
:103DC0004FF080436361A7E7554C5A482062FFF7E4
:103DD000A9FD1423A3604FF0814363619CE7504C1D
:103DE0005A482062FFF79EFD6423A360584B63612D
:103DF00092E74B4C55482062FFF794FDC823A3601F
:103E0000544B636188E7464C50482062FFF78AFDB7
:103E10004FF4FA73A360504B63617DE7404C49480F
:103E20002062FFF77FFD4FF4FA63A3604A4B6361A2
:103E300072E73B4C43482062FFF774FD41F2883340
:103E4000A360464B636167E7354B42F210729A609C
:103E50004FF080425A615FE7314B4CF250329A602A
:103E6000374A5A6158E72E4B314A9A604FF07E52DA
:103E70005A6151E72D4BDB69012B7FF4CBAD284B09
:103E80001B68B3F57A7F16D00CDDB3F5FA6F17D047
:103E900041F2883293427FF4BDAD214B4FF4FA7268
:103EA0001A60B7E5B3F5FA7F7FF4B4AD1C4B4FF45D
:103EB0007A721A60AEE51A4B4FF4FA621A60A9E5FD
:103EC000174B41F288321A60A4E5184BDB69022BCC
:103ED0007FF4A3AD124B1B68B3F57A7F16D00CDDCF
:103EE000B3F5FA6F17D041F2883293427FF495AD63
:103EF0000B4B4FF4FA621A608FE5B3F5FA7F7FF44B
:103F00008CAD074B41F288321A6086E5044B4FF4C2
:103F1000FA721A6081E5024B4FF47A721A607CE5FE
:103F200008000020400D030020A10700E000002051
:103F3000A0860100809FD500E805002060050020D4
:103F400000002041FCAC06000000C840F0B31A009D
:103F5000000020400000A040000048410000FA415D
:103F6000334BDB69012B7FF45BAD324D6868FCF7A6
:103F700041FA06460F462B682F4880FB0320DB17CB
:103F8000C3EBA000FCF736FA27A3D3E90023FCF724
:103F9000C5FB8046894602460B4630463946FCF74B
:103FA00023FD00283FF43CAD42464B46304639469F
:103FB000FCF7D2F8FCF722FD686031E51C4BDB69A9
:103FC000022B7FF430AD1B4E7068FCF713FA0446E9
:103FD0000D463368184880FB0320DB17C3EBA000B5
:103FE000FCF708FA10A3D3E90023FCF797FB064679
:103FF0000F4602460B4600201049FCF7ADF802467A
:104000000B4620462946FCF7D1FC00283FF40BADB7
:1040100032463B4620462946FCF7A0F8FCF7EEFC6A
:10402000044B5860FFE400BF3333333333331D4058
:10403000E000002008000020676666660000B040CF
:1040400000B583B01248134B036000238360012244
:10405000C26043614FF46021C16143600261FDF7BA
:1040600085F958B902A94FF4E02341F8043D084806
:10407000FDF712FB38B903B05DF804FB4FF4926111
:104080000548FFF73BFC4FF493610348FFF736FC0C
:10409000E805002000240140E87F000808B50B482F
:1040A0000B4B0360002383600122C26043614FF425
:1040B0006021C16143600261FDF758F900B908BD94
:1040C00040F2AC410348FFF719FC00BF6005002037
:1040D00000280140E87F000808B50C480C4B03603D
:1040E0000C4B436000238360C3604FF48042026145
:1040F00043618361C3610362FDF7E8FE00B908BD57
:104100004FF498610448FFF7F9FB00BF90050020C9
:1041100000540040A0860100E87F000800B587B089
:1041200019481A4B0360632343600023836040F205
:104130001712C260036180238361FEF723FE98B9E2
:1041400006A94FF4805341F8103D0F48FEF79AFC42
:1041500078B900230093019369460B48FEF72BFEC4
:1041600060B907B05DF804FB40F2D4410848FFF79E
:10417000C5FB40F2DA410648FFF7C0FB40F2E141DF
:104180000348FFF7BBFB00BF2005002000080040EC
:10419000E87F000800B595B001220A924FF4803301
:1041A0000B9300210C910E920222119212934FF464
:1041B000A01313930AA8FEF711F850BB0F23059321
:1041C00002210691002307934FF48062089209931D
:1041D00005A8FEF729FA08BB022301934FF4804398
:1041E000039301A8FEF702FBE8B9FEF7D9FA104BDA
:1041F000A3FB00308009FDF7CDFA0420FDF7E0FABB
:10420000002211464FF0FF30FDF784FA15B05DF83B
:1042100004FB40F25B410748FFF770FB40F2694145
:104220000448FFF76BFB4FF48E610248FFF766FB13
:10423000D34D6210E87F0008F0B583B0FCF744FF6F
:10424000FFF7A8FFFEF7E2FDFEF722FEFFF7F8FEFC
:10425000FFF724FFFFF740FFFFF760FFFFF750FB7A
:10426000954B186AFFF75EFB9448FEF7FFFB9448F6
:10427000FCF7E0FF40F6B83292499348FDF792F917
:104280000023019302E0019B01330193019A8F4BBC
:104290009A42F8DD8C4C2046FDF7F0F8884D284610
:1042A000FDF7ECF82046FDF707F92846FDF704F97D
:1042B0002846FCF7BFFF40F6B83282492046FDF79A
:1042C00071F9FEF7FFFDCDE07B4D6C69214680481A
:1042D000FCF7C0FBFCF7B4FE288207E02946204625
:1042E000FCF7BAFBFCF7ACFE734B1882724B188AD2
:1042F000FCF766FC05464FF081412046FCF7B4FC14
:1043000001462846FCF7A8FB7249FCF74BFEE0B1DA
:1043100021462046FCF7A0FB2946FCF79DFBFCF755
:1043200069FEFEF7D3FD06466B492046FCF79CFC70
:104330002946FCF791FBFCF75DFEFEF7C7FD5E4BDF
:104340005B689E42CADD8342C8DD64492046FCF7B3
:104350008BFC01462846FCF77FFB5E49FCF736FEE6
:1043600018B1554B40F6B8321A82012000F020FAFD
:10437000FFF7F0F8FEF76AFE00F02AFA5048FCF763
:1043800059FF40F6B8324F494F48FDF70BF979E035
:1043900029462046FCF760FBFCF752FE464B18828C
:1043A000454B188AFCF70CFC05464FF0814120462E
:1043B000FCF75AFC01462846FCF74EFB4549FCF742
:1043C000F1FDE0B121462046FCF746FB2946FCF70B
:1043D00043FBFCF70FFEFEF779FD06463E492046FB
:1043E000FCF742FC2946FCF737FBFCF703FEFEF71F
:1043F0006DFD314B5B689E42CADD8342C8DD3749A3
:104400002046FCF731FC01462846FCF725FB3149E4
:10441000FCF7DCFD08B1284B1F82012000F0C8F931
:10442000FFF798F8FEF712FE00F0D2F9224B9B68D6
:104430002B4A934205D02B4A934202D02A4A9342F8
:1044400010D11D4C61692248FCF704FBFCF7F8FD14
:104450002082012000F0ACF9FFF77CF8FEF7F6FDB2
:1044600000F0B6F9FFF7ACFA204BDB68002BF9D06F
:104470001E4B0022DA60104B9A6842F20F739A4288
:104480007FF722AF0C4B9B6842F21072934207D029
:1044900044F62062934203D04CF250329342C5D18D
:1044A000054D6C6921460A48FCF7D4FAFCF7C8FDB3
:1044B00087B22F8274E700BF08000020200500208B
:1044C000600500205C060020E80500203F420F0048
:1044D00000803B450080BB450000404000009C42FE
:1044E000A0860100400D030020A10700E00000208D
:1044F00000B583B0244B9A6942F001029A619A692F
:1045000002F001020092009ADA6942F08052DA6108
:10451000DB6903F080530193019B0320FDF7E8F86A
:10452000002211466FF00B00FDF7F4F8002211464F
:104530006FF00A00FDF7EEF8002211466FF0090057
:10454000FDF7E8F8002211466FF00400FDF7E2F8ED
:10455000002211466FF00300FDF7DCF8002211463F
:104560006FF00100FDF7D6F8002211464FF0FF3042
:10457000FDF7D0F8054A536823F0E06343F0007379
:10458000536003B05DF804FB0010024000000140DE
:1045900010B586B00368254A934204D0244A93425A
:1045A00030D006B010BD0446224B9A6942F4007226
:1045B0009A619B6903F400730093009B01230293AB
:1045C0000323039302A91C48FDF73CFA1B481C4B2C
:1045D00003600023436083608022C2604FF4007256
:1045E00002614FF4006242618361C361FDF712F919
:1045F00018B9124B23625C62D3E775211148FFF7AB
:104600007DF9F6E70B4B9A6942F480629A619B69E7
:1046100003F480630193019B01230293032303931B
:1046200002A90548FDF70EFABBE700BF00240140D0
:104630000028014000100240000801401806002038
:1046400008000240F87F000802680E4B9A4200D032
:10465000704700B587B0C02302931223039303234E
:10466000059302A90848FDF7EDF9084BDA6942F411
:104670000012DA61DB6903F400130193019B07B0B8
:104680005DF804FB00540040000C014000100240A3
:1046900002680E4B9A4200D0704700B583B003F514
:1046A0000233DA6942F00402DA61DB6903F00403E1
:1046B0000193019B002211461E20FDF72BF81E20BE
:1046C000FDF75CF803B05DF804FB00BF0008004094
:1046D0007047FEE7FEE7FEE7FEE77047704770476A
:1046E00008B5FCF703FDFDF77BF808BD08B50248E7
:1046F000FDF706F908BD00BF1806002008B50348FD
:10470000FEF749FAFFF79AF808BD00BF2005002020
:104710000F4B1A6842F001021A6059680D4A0A40AC
:104720005A601A6822F0847222F480321A601A6881
:1047300022F480221A605A6822F4FE025A604FF472
:104740001F029A60044B4FF000629A60704700BFEE
:10475000001002400000FFF800ED00E000B587B057
:1047600006AA02F8010D4FF0FF33029301230193D3
:104770000092002278210348FDF75CFC07B05DF849
:1047800004FB00BF9005002000B585B04FF0FF335B
:10479000029389B2019100900123402278210348BD
:1047A000FDF748FC05B05DF804FB00BF9005002054
:1047B000002303E0FF21054AD1540133B3F5806F94
:1047C00003D20028F6D10021F5E770470801002048
:1047D00010B5002412E0A4F15000C0B2FFF7BEFFF4
:1047E0000020FFF7BBFF1020FFF7B8FF802105482E
:1047F00000EBC410FFF7C8FF0134E4B2072CEAD97C
:1048000010BD00BF0801002008B56420FCF780FC43
:10481000AE20FFF7A3FF2020FFF7A0FF1020FFF737
:104820009DFFB020FFF79AFFC820FFF797FF0020F9
:10483000FFF794FF1020FFF791FF4020FFF78EFF56
:104840008120FFF78BFFFF20FFF788FFA120FFF7F4
:1048500085FFA620FFF782FFA820FFF77FFF3F20FC
:10486000FFF77CFFA420FFF779FFD320FFF776FF47
:104870000020FFF773FFD520FFF770FFF020FFF750
:104880006DFFD920FFF76AFF2220FFF767FFDA20CC
:10489000FFF764FF1220FFF761FFDB20FFF75EFFE9
:1048A0002020FFF75BFF8D20FFF758FF1420FFF754
:1048B00055FFAF20FFF752FF0020FFF779FFFFF70A
:1048C00087FF054B0022A3F80024A3F8022401224D
:1048D00083F8052408BD00BF0801002010F0800FF8
:1048E00016D13F2914D8114B93F8043413B1B2FAFE
:1048F00082F25209012A0CD0CB0800EBC31001F060
:10490000070101238B40094A115C21EA030111547C
:104910007047CB0800EBC31001F0070101238B4067
:10492000024A115C19431154704700BF080100206E
:104930002DE9F04F85B004AC04E90E009DF83880F5
:104940002C4BB3F800349DF804703B447F2B4BDCB8
:10495000284BB3F802349DF805A0D34653443F2BAF
:1049600046DC8146002523E0224BB3F80004B3F86F
:10497000021429442044B8FA88F25209C9B2C0B2DC
:10498000FFF7ACFF0134A74211D906FA04F313F480
:10499000004FE9D0174BB3F80004B3F802142944D0
:1049A00020444246C9B2C0B2FFF798FFEAE701359A
:1049B000AA4511D9029A2AB1A9F1200303FB0B538E
:1049C00032F81360039A2AB1A9F1200303FB0B53B9
:1049D000D65C36020024D6E7064BB3F80024174411
:1049E000A3F80074484600E0002005B0BDE8F08F51
:1049F0000020FAE70801002070B586B0054606A839
:104A000000E90E009DF828602C785CB1009606AB9A
:104A100013E90E002046FFF78BFF2C78A04201D14E
:104A20000135F1E7204606B070BD0000024BA3F847
:104A30000004A3F80214704708010020002103E0DD
:104A40000B4B5B58435004310A480B4B42189A42B7
:104A5000F6D30A4A02E0002342F8043B084B9A428C
:104A6000F9D3FFF755FE00F00FF8FFF7E5FB7047AD
:104A70005080000800000020C4000020C400002076
:104A800040350020FEE7000070B500250C4E0D4CAF
:104A9000A41BA410A54209D100F03CFC00250A4E3D
:104AA0000A4CA41BA410A54205D170BD56F82530B0
:104AB00098470135EEE756F8253098470135F2E77B
:104AC0004880000848800008488000084C800008A2
:104AD000884210B501EB020307D8421E99420AD062
:104AE00011F8014B02F8014FF8E78342F5D981181C
:104AF000D21AD34200D110BD13F8014D01F8014D77
:104B0000F7E700000EB46FF0004100B59CB01DAB9C
:104B100002900690079104910848094953F8042B24
:104B20000591006802A9019300F066F80022029B3B
:104B30001A701CB05DF804EB03B0704760000020F1
:104B40000802FFFF2DE9F0478E6882469E420C4620
:104B50009046994637D88A8912F4906F31D0022353
:104B6000256809696F1A656905EB450595FBF3F53D
:104B700009F101033B449D4238BF1D46530530D522
:104B8000294600F01FFB064650B90C234FF0FF30BA
:104B9000CAF80030A38943F04003A381BDE8F08741
:104BA0003A46216900F0B6FAA38923F4906343F0F2
:104BB0008003A38126613E4426604E466561ED1B5D
:104BC000A5604E4500D94E46324641462068FFF763
:104BD0007FFFA36800209B1BA36023681E44266000
:104BE000DCE72A4600F048FB06460028E2D12169AE
:104BF000504600F09BFAC8E72DE9F04F1D468B891F
:104C00009DB01F0680460C4616460FD50B696BB942
:104C1000402100F0D7FA2060206128B90C23C8F8A1
:104C200000304FF0FF30C8E0402363610023099358
:104C300020238DF8293030234FF0010B8DF82A30D6
:104C4000039537463D4615F8013B0BB1252B3ED168
:104C5000B7EB060A0BD05346324621464046FFF7D3
:104C600071FF013000F0A480099B534409933B7805
:104C7000002B00F09D8000234FF0FF32CDE905238B
:104C8000049307938DF853301A932F46052217F893
:104C9000011B504800F030FA049BD0B9D90644BF3C
:104CA00020228DF853201A0744BF2B228DF8532061
:104CB0002A782A2A15D02F4600200A25079A394635
:104CC00011F8013B303B092B4DD9B8B10FE02F460D
:104CD000B8E7404A3D46801A0BFA00F018430490AA
:104CE000D3E7039A111D12680391002A01DB079292
:104CF00004E0524243F00203079204933B782E2BC8
:104D00000CD17B782A2B33D1039B02371A1D1B68E9
:104D10000392002BB8BF4FF0FF3305932E4D0322B3
:104D20003978284600F0E8F938B14023401B03FAEF
:104D300000F0049B01370343049339780622274887
:104D40007E1C8DF8281000F0D7F9002838D0244BAD
:104D500013BB039B073323F0070308330393099B1B
:104D60004B4409936DE705FB023201200F46A6E78D
:104D700000230A25194601370593384610F8012B00
:104D8000303A092A03D9002BC8D00591C6E705FBA4
:104D9000012101230746F0E703AB00932246114BA4
:104DA00004A94046AFF30080B0F1FF3F8146D6D161
:104DB000A3895B063FF535AF09981DB0BDE8F08FBC
:104DC00003AB00932246074B04A9404600F082F84B
:104DD000EAE700BF148000081A8000081E8000085F
:104DE00000000000454B00082DE9F04791461F46A2
:104DF0008A680B6906469342B8BF1346C9F800306B
:104E000091F843200C46DDF8208012B10133C9F837
:104E100000302368990642BFD9F800300233C9F840
:104E20000030256815F0060507D104F1190AE3687A
:104E3000D9F800209B1AAB4229DC94F84330226851
:104E4000003318BF012392062ED404F143023946E1
:104E50003046C047013021D02368E56803F00603DF
:104E6000042B18BF0025D9F800204FF0000908BF17
:104E7000AD1AA368226908BF25EAE5759342C4BF4D
:104E80009B1AED181A344D451AD1002008E0012371
:104E9000524639463046C047013003D14FF0FF300B
:104EA000BDE8F0870135C2E73020E11881F8430002
:104EB0005A1C94F845102244023382F84310C4E788
:104EC0000123224639463046C0470130E6D009F179
:104ED0000109D8E72DE9F04301F1430C0C46097EA6
:104EE00085B06E291746064698460C9A00F0B380A6
:104EF00022D8632936D00AD8002900F0B980582971
:104F000000F0838004F1420584F8421032E0642905
:104F100001D06929F6D120681368050603F1040160
:104F20002AD51B681160002B03DA2D225B4284F81E
:104F300043206F480A2239E0732900F09D8008D889
:104F40006F2920D07029DDD1236843F0200323602E
:104F500003E0752917D07829D4D17823654884F8DF
:104F6000453055E0136804F14205191D1B681160B6
:104F700084F8423001238CE01B6810F0400F116070
:104F800018BF1BB2CFE713682568181D10602806EC
:104F900001D51B6802E06806FBD51B886F2914BF8A
:104FA0000A2208225248002184F843106568002D27
:104FB000A560C0F29580216821F004012160002BDA
:104FC0003DD1002D40F08E806546082A0BD1236824
:104FD000DB0708D5236962689A42DEBF302305F8F3
:104FE000013C05F1FF35ACEB05032361CDF80080F2
:104FF0003B4603AA21463046FFF7F6FE01304DD16D
:105000004FF0FF3005B0BDE8F083394884F8451013
:10501000136821681D1D1B6815600A060BD5CA0799
:1050200044BF41F0200121601BB9226822F0200218
:1050300022601022B7E74D0648BF9BB2EFE76546F6
:10504000B3FBF2F102FB1133C35C05F8013D0B46E3
:105050000029F5D1B9E713682568181D616910604A
:1050600028061B6801D5196002E06A06FBD5198085
:10507000002365462361B9E71368191D11601D6897
:1050800062680021284600F037F808B1401B6060D4
:1050900063682361002384F84330A7E723692A4625
:1050A00039463046C0470130AAD023689B0713D445
:1050B000E068039B9842B8BF1846A3E701234A461D
:1050C00039463046C04701309AD00135E368039A2B
:1050D0009B1AAB42F2DCEBE7002504F11909F5E776
:1050E000002BACD1037804F1420584F842306CE720
:1050F000258000083680000810B5C9B202449042ED
:10510000034601D1002303E01C7801308C42F6D124
:10511000184610BD10B5431E0A44914200D110BD7F
:1051200011F8014B03F8014FF7E7000038B50546C9
:10513000002943D051F8043C0C1F002BB8BFE418E1
:1051400000F0D0F81E4A1368104633B9636014604B
:105150002846BDE8384000F0C6B8A3420BD9216804
:105160006218934201BF1A685B685218226063603C
:105170000460EDE713465A680AB1A242FAD91968E9
:105180005818A0420BD12068014458188242196077
:10519000DED110685268014419605A60D8E702D91C
:1051A0000C232B60D4E7206821188A4201BF1168C4
:1051B00052680918216062605C60C9E738BD00BFB1
:1051C0001005002070B5CD1C25F0030508350C2D09
:1051D00038BF0C25002D064601DBA94203D90C235C
:1051E0003360002070BD00F07DF8214A146821462C
:1051F00091B9204C23681BB9304600F063F8206059
:105200002946304600F05EF8431C24D10C2330467A
:10521000336000F068F8E4E70B685B1B18D40B2BD5
:105220000FD90B60CC18CD50304600F05CF804F17B
:105230000B00231D20F00700C31AD3D05A42E250BE
:10524000D0E74B688C4216BF636013600C46EBE7F7
:105250000C464968CCE7C41C24F00304A04205D0E6
:10526000211A304600F02EF80130CFD02560DBE760
:105270001005002014050020F8B5074614460E4618
:1052800021B9BDE8F8401146FFF79CBF22B9FFF7EE
:105290004DFF25462846F8BD00F026F8A0420FD263
:1052A00021463846FFF78EFF05460028F2D03146EA
:1052B0002246FFF72FFF31463846FFF737FFE9E771
:1052C0003546E7E738B50023054C05460846236018
:1052D00000F012F8431C02D1236803B12B6038BDE3
:1052E0003C3500207047704751F8043C181F002BD4
:1052F000BCBF0B58C0187047044A05491368002BFF
:1053000008BF0B4618441060184670471805002067
:1053100040350020F8B500BFF8BC08BC9E46704779
:0C532000F8B500BFF8BC08BC9E46704702
:10532C0002030405060708090A0B0C0D0E0F1010DA
:10533C000102000002030405060708090A0B0C0D04
:10534C000E0F101001020000000000000000000011
:10535C00010203040607080900000000010203040F
:10536C000000000000000000000000000000000031
:10537C000000000000000000000000000000000021
:10538C000000000000000000000000000000000011
:10539C0000000000E003E003E003E003E003E003AF
:1053AC00E003E003C003C003C001C001C001C001A1
:1053BC00C001000000000000E003E003E003000077
:1053CC0000000000000000003C1E3C1E3C1E3C1E69
:1053DC003C1E3C1E3C1E00000000000000000000B3
:1053EC0000000000000000000000000000000000B1
:1053FC00000000000000000000000000CE01CE0301
:10540C00DE039E039C039C07FF3FFF7F3807380F8A
:10541C00780F780F780EFFFFFFFFF01EF01CE01CDA
:10542C00E03CE03DE039000000000000000000001E
:10543C00FC03FE0FEE1FE01EE01EE01EE01EE01F50
:10544C00E00FE007F003FC01FE01FE01FE01FE018E
:10545C00FE01FE01FE3DFC3FF00FE001E00100000B
:10546C0000000000033E07F78FE78EE79EE3BCE3E6
:10547C00B8E7F8E7F0F7E03FC001FF03FF07F307D9
:10548C00F30FF31EF33CF338F3787FF03FE00000AA
:10549C000000000000000000E007F80F780F781FF4
:1054AC00781F781F780FF00FE00F801FC37FC3FBAE
:1054BC00E7F3F7F1F7F0FFF07FF03EF87F7CFF3F6A
:1054CC00EF1F00000000000000000000E003E003FC
:1054DC00E003E003E003C003C00100000000000093
:1054EC0000000000000000000000000000000000B0
:1054FC0000000000000000000000000000000000A0
:10550C003F007C00F001E001C003C007800780076A
:10551C00800F000F000F000F000F000F000F800F07
:10552C0080078007C007C003E001F0017C003F004A
:10553C000F000000007E001FC007C003E001F00157
:10554C00F000F000F800780078007800780078001F
:10555C007800F800F000F000F001E001C003C00793
:10556C00001F007E00780000E003C003C001CE39AC
:10557C00FF3F7F3F20037003F807780F3C1F38066E
:10558C00000000000000000000000000000000000F
:10559C0000000000000000000000000000000000FF
:1055AC000000000000000000C001C001C001C001EB
:1055BC00C001C001C001FFFFFFFFC001C001C0015D
:1055CC00C001C001C001000000000000000000008C
:1055DC0000000000000000000000000000000000BF
:1055EC0000000000000000000000000000000000AF
:1055FC000000E003E003E003E003E001E001E00170
:10560C00C00180030000000000000000000000004A
:10561C0000000000000000000000FE3FFE3F000004
:10562C00000000000000000000000000000000006E
:10563C00000000000000000000000000000000005E
:10564C00000000000000000000000000000000004E
:10565C0000000000000000000000E003E003E00395
:10566C00E003000000000000000000000F000F002D
:10567C001E001E003C003C0078007800F000F0009A
:10568C00E001E001C003C00380078007000F000F9A
:10569C00001E001E003C003C0078007800F000006A
:1056AC00F007F80F7C1F3E3E1E3C1F7C1F7C0F78C2
:1056BC000F780F780F780F780F780F781F7C1F7C7E
:1056CC001E3C3E3E7C1FF80FF0070000000000005F
:1056DC0000000000F000F007F03FF03FF001F00197
:1056EC00F001F001F001F001F001F001F001F00126
:1056FC00F001F001F001F001F001FF3FFF3F00006D
:10570C000000000000000000E00FF83F7C3C3C0073
:10571C003E003E003E003C003C007C00F800F001E6
:10572C00E003C0078007000F001E003E003CFE3F58
:10573C00FE3F00000000000000000000F00FF81F0A
:10574C007C1C3E003E003E003C003C00F800F00F8C
:10575C00F80F7C003E001E001E001E001E003E00C6
:10576C007C1CF81FE01F000000000000000000007F
:10577C007800F800F800F801F803F807F807780F3C
:10578C00781E781E783C78787878FFFFFFFF7800D9
:10579C0078007800780078007800000000000000A5
:1057AC0000000000FC1FFC1FFC1F001E001E001E42
:1057BC00001E001EE01FF81FFC007C003E003E0097
:1057CC001E003E003E003C007C1CF81FE01F000049
:1057DC000000000000000000FC01FE078E0F001FFF
:1057EC00001E003E003C003CF83DFC3F3E7F1F7E0F
:1057FC000F3C0F3C0F3C0F3C0F3E1F1E3E1FFC0F7F
:10580C00F00300000000000000000000FF3FFF3F1D
:10581C00FF3F0F001E001E003C0038007800F00017
:10582C00F000E001E001C003C0038007800F800F8F
:10583C00000F001F001F000000000000000000000F
:10584C00F807FC0F3E1F1E1E1E3E1E3E1E1E3C1F5A
:10585C00F80FF007F80FFC1E3E3E1F3C1F7C0F7C20
:10586C000F7C1F3C3E3FFC1FF007000000000000B7
:10587C0000000000F007F80F7C1E3E3C1E3C1F7C15
:10588C001F7C1F7C1F7C1F3C3F3EFF1FEF071F0030
:10589C001E001E003E003C00F838F03FE01F0000E8
:1058AC0000000000000000000000000000000000EC
:1058BC0000000000E003E003E003E0030000000050
:1058CC0000000000000000000000E003E003E00323
:1058DC00E0030000000000000000000000000000D9
:1058EC000000000000000000E003E003E003E00320
:1058FC000000000000000000000000000000E003B9
:10590C00E003E003E003E001E001E001C0038003F9
:10591C0000000000000000000000000003000F0069
:10592C003F00FC00F003C00F003F00FE003FC00F23
:10593C00F003FC003F000F0003000000000000001B
:10594C00000000000000000000000000000000004B
:10595C000000000000000000FFFFFFFF000000003F
:10596C000000FFFFFFFF000000000000000000002F
:10597C00000000000000000000000000000000001B
:10598C000000000000E000F8007E801FE007F80136
:10599C007E001F007E00F801E007801F007E00F8EB
:1059AC0000E000000000000000000000F01FFC3FC1
:1059BC003E381F381F381E001E003C007800F000D7
:1059CC00E001C003C003C007C007000000000000D6
:1059DC00C007C007C0070000000000000000000066
:1059EC00F803FE0F1E1F0F3E7F3CFF78EF79C77345
:1059FC00C7F38FF38FF38FF39FF39FF3FF73FF7B4B
:105A0C00F779003C1C1FFC0FF8030000000000009D
:105A1C0000000000000000000000E003E003F007BD
:105A2C00F007F007780F780F7C0E3C1E3C1E3E3CB6
:105A3C00FE3FFF3F1F780F780FF007F007F00000D4
:105A4C000000000000000000000000000000F83F13
:105A5C00FC3F3E3C1E3C1E3C1E3C3E3C7C3CF03F16
:105A6C00F83F7E3C1F3C1F3C0F3C0F3C1F3CFE3F55
:105A7C00F83F0000000000000000000000000000E3
:105A8C000000FF01FF07871F003E003C007C0078F0
:105A9C000078007800780078007C007C003E003FA5
:105AAC00831FFF07FF010000000000000000000042
:105ABC00000000000000F07FFC7F7E781F781F78CC
:105ACC000F780F780F780F780F780F780F780F7892
